{"abi":[{"type":"function","name":"depositEth","inputs":[{"name":"fid","type":"uint256","internalType":"uint256"}],"outputs":[],"stateMutability":"payable"},{"type":"function","name":"withdrawEth","inputs":[{"name":"_amount","type":"uint256","internalType":"uint256"}],"outputs":[],"stateMutability":"nonpayable"},{"type":"event","name":"EthDeposit","inputs":[{"name":"fid","type":"uint256","indexed":true,"internalType":"uint256"},{"name":"amount","type":"uint256","indexed":true,"internalType":"uint256"},{"name":"depositor","type":"address","indexed":true,"internalType":"address"}],"anonymous":false}],"bytecode":{"object":"0x608060405234801561001057600080fd5b50610107806100206000396000f3fe60806040526004361060265760003560e01c80630f4d14e914602b578063c311d04914603c575b600080fd5b603a603636600460b9565b6057565b005b348015604757600080fd5b50603a605336600460b9565b6089565b6040513390349083907f30b2e44364aa9c06ea4f7bc26976d9ed1a5e041d1520c9b56e7495997b57efa890600090a450565b604051339082156108fc029083906000818181858888f1935050505015801560b5573d6000803e3d6000fd5b5050565b60006020828403121560ca57600080fd5b503591905056fea2646970667358221220a95bf078c62fbb0700eab80644c29e60ca1030be7e3da9013b9c7e3828e57dad64736f6c63430008170033","linkReferences":{}},"methodIdentifiers":{"depositEth(uint256)":"0f4d14e9","withdrawEth(uint256)":"c311d049"},"id":20}