{"abi":[{"type":"constructor","inputs":[{"name":"VersusUSDC","type":"address","internalType":"address"}],"stateMutability":"nonpayable"},{"type":"function","name":"depositEth","inputs":[{"name":"fid","type":"uint256","internalType":"uint256"}],"outputs":[],"stateMutability":"payable"},{"type":"function","name":"depositVusdc","inputs":[{"name":"fid","type":"uint256","internalType":"uint256"},{"name":"amount","type":"uint256","internalType":"uint256"}],"outputs":[],"stateMutability":"payable"},{"type":"function","name":"vusdcAddress","inputs":[],"outputs":[{"name":"","type":"address","internalType":"address"}],"stateMutability":"view"},{"type":"function","name":"withdrawEth","inputs":[{"name":"_amount","type":"uint256","internalType":"uint256"}],"outputs":[],"stateMutability":"nonpayable"},{"type":"function","name":"withdrawVusdc","inputs":[{"name":"amount","type":"uint256","internalType":"uint256"}],"outputs":[],"stateMutability":"nonpayable"},{"type":"event","name":"EthDeposit","inputs":[{"name":"fid","type":"uint256","indexed":true,"internalType":"uint256"},{"name":"amount","type":"uint256","indexed":true,"internalType":"uint256"},{"name":"depositor","type":"address","indexed":true,"internalType":"address"}],"anonymous":false},{"type":"event","name":"VUSDCDeposit","inputs":[{"name":"fid","type":"uint256","indexed":true,"internalType":"uint256"},{"name":"amount","type":"uint256","indexed":true,"internalType":"uint256"},{"name":"depositor","type":"address","indexed":true,"internalType":"address"}],"anonymous":false}],"bytecode":{"object":"0x608060405234801561001057600080fd5b5060405161043c38038061043c83398101604081905261002f91610054565b600080546001600160a01b0319166001600160a01b0392909216919091179055610084565b60006020828403121561006657600080fd5b81516001600160a01b038116811461007d57600080fd5b9392505050565b6103a9806100936000396000f3fe60806040526004361061004a5760003560e01c80630f4d14e91461004f57806322908fd91461006457806391d3851e146100a0578063c311d049146100c0578063ceed1874146100e0575b600080fd5b61006261005d36600461030f565b6100f3565b005b34801561007057600080fd5b50600054610084906001600160a01b031681565b6040516001600160a01b03909116815260200160405180910390f35b3480156100ac57600080fd5b506100626100bb36600461030f565b610125565b3480156100cc57600080fd5b506100626100db36600461030f565b6101e9565b6100626100ee366004610328565b61021a565b6040513390349083907f30b2e44364aa9c06ea4f7bc26976d9ed1a5e041d1520c9b56e7495997b57efa890600090a450565b6000805460405163a9059cbb60e01b8152336004820152602481018490526001600160a01b039091169190829063a9059cbb906044016020604051808303816000875af115801561017a573d6000803e3d6000fd5b505050506040513d601f19601f8201168201806040525081019061019e919061034a565b9050806101e45760405162461bcd60e51b815260206004820152600f60248201526e151c985b9cd9995c8819985a5b1959608a1b60448201526064015b60405180910390fd5b505050565b604051339082156108fc029083906000818181858888f19350505050158015610216573d6000803e3d6000fd5b5050565b600080546040516323b872dd60e01b8152336004820152306024820152604481018490526001600160a01b03909116919082906323b872dd906064016020604051808303816000875af1158015610275573d6000803e3d6000fd5b505050506040513d601f19601f82011682018060405250810190610299919061034a565b9050806102da5760405162461bcd60e51b815260206004820152600f60248201526e151c985b9cd9995c8819985a5b1959608a1b60448201526064016101db565b6040513390849086907f38a04d0e0e342bc4e31877fcfb14f356688dde4de42d88fe55dc04fea46cdacd90600090a450505050565b60006020828403121561032157600080fd5b5035919050565b6000806040838503121561033b57600080fd5b50508035926020909101359150565b60006020828403121561035c57600080fd5b8151801515811461036c57600080fd5b939250505056fea264697066735822122009ff8737f33a9b31cb447a5249189169c474e92e1b74c0364696e31bc98ddf6764736f6c63430008170033","linkReferences":{}},"methodIdentifiers":{"depositEth(uint256)":"0f4d14e9","depositVusdc(uint256,uint256)":"ceed1874","vusdcAddress()":"22908fd9","withdrawEth(uint256)":"c311d049","withdrawVusdc(uint256)":"91d3851e"},"id":25}